:100000000C9446000C9465000C9465000C946500FB
:100010000C9465000C9465000C9465000C946500CC
:100020000C9465000C9465000C9465000C946500BC
:100030000C9465000C94DE000C9465000C94650033
:100040000C9465000C9465000C9465000C9465009C
:100050000C9465000C9465000C9465000C9465008C
:100060000C9465000C9465000C9465000C9465007C
:100070000C9465000C9465000C9465000C9465006C
:100080000C9465000C9465000C94650011241FBE4F
:10009000CFEFD0E4DEBFCDBF12E0A0E0B1E0ECE4F2
:1000A000F9E000E00BBF02C007900D92AA35B1073E
:1000B000D9F722E0AAE5B2E001C01D92A436B2074A
:1000C000E1F70E94DA020C94A4040C940000CF9390
:1000D000DF9300D01F92CDB7DEB789837B836A831D
:1000E00089818A3031F48A819B81BC018DE00E9434
:1000F000670080EC90E0FC018081882F90E08072A6
:100100009927892BB1F386EC90E02981FC012083AB
:1001100080E090E00F900F900F90DF91CF910895C5
:10012000CF93DF93CDB7DEB781E890E02BE0FC0101
:10013000208388E890E02DE730E0FC0131832083C4
:100140008FE690E022E0FC01208384E890E0FC014F
:100150001182108280910E0190910F01A0911001E7
:10016000B091110180935B0290935C02A0935D02B9
:10017000B0935E028FE590E02FE530E0F901208139
:100180002068FC0120830000DF91CF910895CF9378
:10019000DF93CDB7DEB781E890E0FC01108200006C
:1001A000DF91CF910895CF93DF93CDB7DEB781E094
:1001B00080935A020000DF91CF9108951F920F9211
:1001C00000905F000F92112400905B000F922F931C
:1001D0003F934F935F936F937F938F939F93AF93CF
:1001E000BF93EF93FF93CF93DF93CDB7DEB78091AB
:1001F0005B0290915C02A0915D02B0915E0201975A
:10020000A109B10980935B0290935C02A0935D0207
:10021000B0935E0280915B0290915C02A0915D02BE
:10022000B0915E02892B8A2B8B2B91F40E94D30014
:1002300080910E0190910F01A0911001B0911101D8
:1002400080935B0290935C02A0935D02B0935E0288
:100250000000DF91CF91FF91EF91BF91AF919F91FE
:100260008F917F916F915F914F913F912F910F905F
:1002700000925B000F9000925F000F901F90189506
:10028000CF93DF9300D000D0CDB7DEB769837A83F8
:100290008B839C8389819A81AB81BC8180930E0181
:1002A00090930F01A0931001B093110180910E0162
:1002B00090910F01A0911001B091110180935B0208
:1002C00090935C02A0935D02B0935E0200000F90D9
:1002D0000F900F900F90DF91CF9108950F931F9380
:1002E000CF93DF9300D000D0CDB7DEB769837A8398
:1002F0008B839C8320E030E0A90169817A818B8126
:100300009C810E941003882351F481E990E021E947
:1003100030E0F90120812870FC01208309C081E9C7
:1003200090E021E930E0F90120812360FC01208385
:1003300028E539E344E75FE369817A818B819C8119
:100340000E941003882344F488E990E02FEF3FEFE8
:10035000FC013183208334C020E034E244EF56E4D2
:1003600069817A818B819C810E943204181634F451
:1003700088E990E0FC011182108222C008E910E0B7
:1003800020E030E040E053E469817A818B819C81F8
:100390000E943704DC01CB019C01AD0160E074E2F6
:1003A00084EF9AE40E941503DC01CB01BC01CD016E
:1003B0000E948703DC01CB010197F80191838083C0
:1003C00084E990E0FC011182108200000F900F90F0
:1003D0000F900F90DF91CF911F910F910895CF93C0
:1003E000DF93CDB7DEB780E990E020E4FC01208305
:1003F00081E990E02BE0FC01208360E070E0CB011C
:100400000E946E010000DF91CF910895CF93DF939A
:10041000CDB7DEB780E990E0FC01108281E990E081
:10042000FC0110820000DF91CF910895CF93DF93FC
:10043000CDB7DEB780916202909163028230910560
:1004400039F18330910528F4009779F00197A1F0F4
:10045000A2C08430910509F442C08430910508F4AB
:100460007BC0059709F455C096C081E090E0909359
:1004700063028093620299C080916102813009F029
:1004800091C082E090E090936302809362028AC000
:1004900080915F02909160028997D4F480915F020D
:1004A00090916002880F991F880F991F8A549E4F60
:1004B000FC0180819181A281B381BC01CD010E94A8
:1004C0006E0184E090E090936302809362026DC0BD
:1004D00083E090E0909363028093620266C0809113
:1004E0005F0290916002880F991F8C599E4FFC010A
:1004F00080819181092E000CAA0BBB0BBC01CD01A0
:100500000E94400185E090E0909363028093620234
:100510004CC080915F0290916002880F991F8E5E9F
:100520009E4FFC0180819181092E000CAA0BBB0B10
:10053000BC01CD010E94400180915F029091600258
:1005400001969093600280935F0282E090E0909326
:1005500063028093620229C060E070E0CB010E94D8
:100560006E011092600210925F02809161028130F0
:1005700039F483E090E0909363028093620214C0A8
:1005800080916102882381F481E090E0909363027E
:100590008093620209C081E090E0909363028093AF
:1005A000620203C0000001C0000000000000DF91F3
:1005B000CF910895CF93DF93CDB7DEB781E290E07E
:1005C000FC01108282E290E02FEFFC01208384E2A4
:1005D00090E020E4FC01208385E290E02FEBFC0119
:1005E000208310926302109262020E94EF0164E67F
:1005F00070E080E090E00E9440010E94900080E264
:1006000090E0FC01808180958093610200008091E0
:100610005A028823E1F310925A020E941602EFCF89
:100620000E94BD0308F481E008950E9429030C9400
:10063000F8030E94F10358F00E94EA0340F029F405
:100640005F3F29F00C94E10351110C942C040C949D
:10065000E7030E94090468F39923B1F3552391F34A
:10066000951B550BBB27AA2762177307840738F021
:100670009F5F5F4F220F331F441FAA1FA9F335D07E
:100680000E2E3AF0E0E832D091505040E695001C32
:10069000CAF72BD0FE2F29D0660F771F881FBB1FEC
:1006A000261737074807AB07B0E809F0BB0B802DCA
:1006B000BF01FF2793585F4F3AF09E3F510578F0F6
:1006C0000C94E1030C942C045F3FE4F3983ED4F3C4
:1006D000869577956795B795F7959F5FC9F7880FCA
:1006E000911D9695879597F90895E1E0660F771F1C
:1006F000881FBB1F621773078407BA0720F0621BAD
:10070000730B840BBA0BEE1F88F7E09508950E94D7
:100710008E036894B1110C942C0408950E94110466
:1007200088F09F5798F0B92F9927B751B0F0E1F0B2
:10073000660F771F881F991F1AF0BA95C9F714C062
:10074000B13091F00E942B04B1E008950C942B0479
:10075000672F782F8827B85F39F0B93FCCF386959B
:1007600077956795B395D9F73EF4909580957095F8
:1007700061957F4F8F4F9F4F0895990F0008550F38
:10078000AA0BE0E8FEEF16161706E807F907C0F017
:1007900012161306E407F50798F0621B730B840B1F
:1007A000950B39F40A2661F0232B242B252B21F4F9
:1007B00008950A2609F4A140A6958FEF811D811D99
:1007C000089597F99F6780E870E060E008959FEFD3
:1007D00080EC089500240A941616170618060906D8
:1007E000089500240A9412161306140605060895A7
:1007F000092E0394000C11F4882352F0BB0F40F42F
:10080000BF2B11F460FF04C06F5F7F4F8F4F9F4F6E
:10081000089557FD9058440F551F59F05F3F71F0F0
:100820004795880F97FB991F61F09F3F79F0879557
:100830000895121613061406551FF2CF4695F1DFE0
:1008400008C0161617061806991FF1CF8695710570
:10085000610508940895E894BB2766277727CB01A4
:1008600097F908950E94BD0308F48FEF08950E9440
:100870004A040C94F8030E94EA0338F00E94F10342
:1008800020F0952311F00C94E1030C94E70311245C
:100890000C942C040E94090470F3959FC1F3950FEA
:1008A00050E0551F629FF001729FBB27F00DB11DF4
:1008B000639FAA27F00DB11DAA1F649F6627B00D84
:1008C000A11D661F829F2227B00DA11D621F739F6D
:1008D000B00DA11D621F839FA00D611D221F749F7B
:1008E0003327A00D611D231F849F600D211D822FC2
:1008F000762F6A2F11249F5750409AF0F1F08823E9
:100900004AF0EE0FFF1FBB1F661F771F881F915015
:100910005040A9F79E3F510580F00C94E1030C94E0
:100920002C045F3FE4F3983ED4F386957795679562
:10093000B795F795E7959F5FC1F7FE2B880F911D3F
:0C0940009695879597F90895F894FFCFDD
:10094C000000000200000000670000000000010031
:10095C00000050005000640050005000C800960089
:10096C0096006400640064004B004B004B004B008D
:10097C004B004B004B004B004B004B004B004B0013
:10098C004B004B004B004B004B004B004B004B0003
:10099C004B004B004B004B004B004B004B004B00F3
:1009AC004B004B0032003200320032003200320079
:1009BC00320032003200320032003200320032009B
:1009CC00320032003200320032003200320032008B
:1009DC00320032003200320032003200320032007B
:1009EC00320032003200320032003200320032006B
:1009FC00320032003200A4D02444A4D02444A4D029
:100A0C00244400D00244A4D024445CFF434400009E
:100A1C00C44300D002440000C443A4D0A44300004B
:100A2C00DC43A4F0F6437B14E9430000DC430000F4
:100A3C00C443A4D024445CFF434400005C44719D37
:100A4C002E445CFF4344A4D0244400D002441FD560
:100A5C001244A4F0F64300D002440000C443A4D0D6
:100A6C00A4430000DC43A4F0F6437B14E9430000EC
:100A7C00DC430000C443A4D024445CFF4344000086
:100A8C005C44719D2E445CFF4344A4D0244400D0AC
:0A0A9C0002441FD51244A4F0F643F3
:00000001FF
